:1000000010C022C021C020C01FC01EC01DC01CC007
:100010001BC01AC019C018C017C016C015C014C024
:1000200013C011241FBECFE5D2E0DEBFCDBF10E06C
:10003000A0E6B0E0E0E1F3E002C005900D92A23648
:10004000B107D9F7CDD062C1DBCF99B32BB390956F
:100050009170207181E0921301C080E0089539B35E
:100060008BB3807129B322709BB330FF03C0811121
:100070000CC00895811105C081E0211105C080E008
:1000800003C081E02111FBCF08959072922B81E093
:10009000D9F7F5CF29B38BB389B382709BB3907234
:1000A00020FF07C0811105C081E0992329F080E07D
:1000B00003C081E09923D9F3089539B38BB38074D9
:1000C00099B398702BB332FF03C081110EC008950D
:1000D000811105C081E0911105C080E0089581E0A3
:1000E0009111FBCF089581E008959111FCCF022E6C
:1000F000000C330B832F881F8827881F089549B36E
:100100002BB3207499B398708BB3342F347042FFA3
:100110000CC091110CC0082E000C990B8095909585
:10012000892F881F8827881F0895992331F087FF1A
:100130000CC0222371F031110CC087FF08C081E090
:10014000211102C0911103C008953323B1F380E05F
:10015000089581E00895DE990AC0CA9902C0CB993A
:1001600011C0CA9904C080916000813059F0DE9BB3
:1001700002C0CB9B07C0DE9B07C089B382FB8827E8
:1001800080F9089581E0089580E00895DF990AC01C
:10019000CB9902C0CA9911C089B388709091600050
:1001A000892B59F0DF9B02C0CA9B07C0DF9B07C0A9
:1001B00089B383FB882780F9089581E0089580E062
:1001C0000895CA9905C0CB9B03C0109260000895A2
:1001D000CB9905C0CA9B03C081E08093600008955D
:1001E000D098D198D298D398B898B998D89AD99AE3
:1001F000DA9ADB9AC09AC19AD49AD59AD69AD79AA3
:10020000B09902C0B19B29C0B09B02C0B19B43C052
:10021000B09902C0B1995CC0B09BF2CFB19BF0CF56
:100220001EDF9BB38295807F89278BBB33DF9BB317
:100230008295880F807E89278BBB3FDF9BB3829599
:10024000880F880F807C89278BBB59DF9BB38795EC
:100250008827879589278BBBDFCFF7DE9BB38295F5
:10026000807F89278BBB16DF9BB38295880F807EAA
:1002700089278BBB70DF9BB38295880F880F807CAA
:1002800089278BBB83DF9BB3879588278795892731
:100290008BBB97DFB5CFD9DE9BB38295807F892753
:1002A0008BBBF8DE9BB38295880F807E89278BBB42
:1002B00004DF9BB38295880F880F807C89278BBBD6
:1002C0001EDF9BB387958827879589278BBB9CCF9B
:1002D000C6DE9BB38295807F89278BBBDBDE9BB319
:1002E0008295880F807E89278BBB35DF9BB38295F3
:1002F000880F880F807C89278BBB48DF9BB387954D
:100300008827879589278BBB5CDF82CFF894FFCF46
:020310000200E9
:00000001FF
