:1000000010C01FC01EC01DC01CC01BC01AC019C01C
:1000100018C017C016C015C014C013C012C011C03C
:1000200010C011241FBECFE5D2E0DEBFCDBF20E05F
:10003000A0E6B0E001C01D92A136B207E1F7CCD036
:1000400061C1DECF99B32BB390959170207181E09F
:10005000921301C080E0089539B32BB3207199B396
:1000600092708BB330FF03C021110BC008C081E038
:10007000211103C091110DC002C0992351F080E0FD
:100080000895911104C085FB882780F9089581E0C7
:100090000895089529B38BB389B382709BB390728E
:1000A00020FF06C081110AC081E0992361F00AC0D7
:1000B000811104C081E0911106C004C0992311F0A0
:1000C00081E0089580E0089539B38BB3807499B3CB
:1000D00098702BB332FF03C081110CC008958111B9
:1000E00004C081E0911112C003C081E0992371F036
:1000F00080E00895911108C0822F220F990B892F5B
:10010000881F8827881F089581E00895089529B3DE
:100110008BB389B388709BB3907822FF06C081119E
:100120000AC081E0992361F00AC0811104C081E016
:10013000911106C004C0992311F081E0089580E078
:1001400008958091600081110DC0DE990BC0CA999D
:1001500009C0DF9B07C08BB380588BBB81E08093C5
:1001600060000895DE9904C0CA9902C0CB9907C007
:10017000DE9B07C089B382FB882780F9089581E060
:10018000089580E008958091600081110EC0DF998C
:100190000CC0CB990AC0DE9B08C09BB380E48927C2
:1001A0008BBB81E0809360000895DF9904C0CB99F8
:1001B00002C0CA9907C0DF9B07C089B383FB8827A9
:1001C00080F9089581E0089580E00895CA9901C0FA
:1001D000CB99109260000895D098D198D298D39876
:1001E000B898B998D89AD99ADA9ADB9AC09AC19AEB
:1001F000D49AD59AD69AD79AB0993EC0B1993CC0B4
:1002000021DF9BB38295807F98279BBB43DF9BB305
:100210008295880F807E98279BBB93DF9BB3829546
:10022000880F880F807C98279BBBADDF9BB3879599
:100230008827879598279BBBC9DFDECFB1993EC041
:1002400001DF9BB38295807F98279BBB23DF9BB305
:100250008295880F807E98279BBB36DF9BB3829563
:10026000880F880F807C98279BBB51DF9BB38795B5
:100270008827879598279BBBB099E0CF1FC0B19B7B
:100280003EC0EADE9BB38295807F98279BBB02DF4E
:100290009BB38295880F807E98279BBB52DF9BB3D0
:1002A0008295880F880F807C98279BBB6CDF9BB35F
:1002B00087958827879598279BBB88DFB09BDFCFE2
:1002C0001EC0B19B99CFC8DE9BB38295807F9827D3
:1002D0009BBBE0DE9BB38295880F807E98279BBBFB
:1002E000F3DE9BB38295880F880F807C98279BBB99
:1002F0000EDF9BB387958827879598279BBBB0997E
:08030000E0CF7ACFF894FFCFA3
:00000001FF
